{
  "contractName": "HelloWorld",
  "abi": [
    {
      "constant": true,
      "inputs": [],
      "name": "hello",
      "outputs": [
        {
          "name": "greeting",
          "type": "string"
        }
      ],
      "payable": false,
      "stateMutability": "pure",
      "type": "function"
    }
  ],
  "bytecode": "0x608060405234801561001057600080fd5b50610114806100206000396000f3fe6080604052348015600f57600080fd5b506004361060285760003560e01c806319ff1d2114602d575b600080fd5b603360ab565b6040518080602001828103825283818151815260200191508051906020019080838360005b8381101560715780820151818401526020810190506058565b50505050905090810190601f168015609d5780820380516001836020036101000a031916815260200191505b509250505060405180910390f35b60606040518060400160405280600f81526020017fec9588eb8595ed9598ec84b8ec9a94000000000000000000000000000000000081525090509056fea165627a7a7230582023817e09f77766f052d7921130d2b4cc04779f54e84a4288948c7a06d064c2cd0029",
  "source": "pragma solidity 0.5.6;\n\ncontract HelloWorld {\n    function hello () public pure returns (string memory greeting){\n\t\t\tgreeting = \"안녕하세요\"; \n\t\t}\n}",
  "sourcePath": "/Users/baekdonghyun/Desktop/beb-03-DND/server/contracts/HelloWorld.sol",
  "compiler": {
    "name": "solc",
    "version": "0.5.6+commit.b259423e.Emscripten.clang"
  },
  "schemaVersion": "3.3.3",
  "updatedAt": "2022-05-09T09:58:18.294Z",
  "networkType": "ethereum",
  "devdoc": {
    "methods": {}
  },
  "userdoc": {
    "methods": {}
  }
}