{
  "contractName": "KlaytnGreeter",
  "abi": [
    {
      "constant": true,
      "inputs": [],
      "name": "render",
      "outputs": [
        {
          "name": "greeting",
          "type": "string"
        }
      ],
      "payable": false,
      "stateMutability": "pure",
      "type": "function"
    }
  ],
  "bytecode": "0x608060405234801561001057600080fd5b50610114806100206000396000f3fe6080604052348015600f57600080fd5b506004361060285760003560e01c8063d607497a14602d575b600080fd5b603360ab565b6040518080602001828103825283818151815260200191508051906020019080838360005b8381101560715780820151818401526020810190506058565b50505050905090810190601f168015609d5780820380516001836020036101000a031916815260200191505b509250505060405180910390f35b60606040518060400160405280600c81526020017f48656c6c6f20576f726c6421000000000000000000000000000000000000000081525090509056fea165627a7a72305820f6309f7f6e531bbc1815df7be11ac01a66054398c753e5d312268e83cbb75ea60029",
  "source": "pragma solidity 0.5.6;\n\ncontract KlaytnGreeter {\n    function render () public pure returns (string memory greeting){\n\t\t\tgreeting = \"Hello World!\"; \n\t\t}\n}",
  "sourcePath": "/Users/baekdonghyun/Desktop/beb-03-DND/server/contracts/KlaytnGreeter.sol",
  "compiler": {
    "name": "solc",
    "version": "0.5.6+commit.b259423e.Emscripten.clang"
  },
  "schemaVersion": "3.3.3",
  "updatedAt": "2022-05-09T09:50:42.951Z",
  "networkType": "ethereum",
  "devdoc": {
    "methods": {}
  },
  "userdoc": {
    "methods": {}
  }
}