{
  "contractName": "Mortal",
  "abi": [
    {
      "inputs": [],
      "payable": false,
      "stateMutability": "nonpayable",
      "type": "constructor"
    },
    {
      "constant": false,
      "inputs": [],
      "name": "kill",
      "outputs": [],
      "payable": true,
      "stateMutability": "payable",
      "type": "function"
    }
  ],
  "bytecode": "0x608060405234801561001057600080fd5b50336000806101000a81548173ffffffffffffffffffffffffffffffffffffffff021916908373ffffffffffffffffffffffffffffffffffffffff16021790555060e58061005f6000396000f3fe608060405260043610601c5760003560e01c806341c0e1b5146021575b600080fd5b60276029565b005b6000809054906101000a900473ffffffffffffffffffffffffffffffffffffffff1673ffffffffffffffffffffffffffffffffffffffff163373ffffffffffffffffffffffffffffffffffffffff16141560b7576000809054906101000a900473ffffffffffffffffffffffffffffffffffffffff1673ffffffffffffffffffffffffffffffffffffffff16ff5b56fea165627a7a72305820a50c1583bec66d2f338d0e4ef003d5c401bf581ca4269e3074a7078364f05a870029",
  "source": "pragma solidity 0.5.6;\ncontract Mortal {\n    /* 주소 타입의 소유자(owner) 변수 정의 */\n    address payable owner;\n    /* 이 함수는 초기화 시점에 실행되어 컨트랙트 소유자를 설정합니다 */\n    constructor () public { owner = msg.sender; }\n    /* 컨트랙트에서 자금을 회수하는 함수 */\n    function kill() public payable { if (msg.sender == owner) selfdestruct(owner); }\n}\n\ncontract KlaytnGreeter is Mortal {\n    /* 문자열 타입의 변수 greeting 정의 */\n    string greeting;\n    /* 이 함수는 컨트랙트가 실행될 때 작동합니다 */\n    constructor (string memory _greeting) public {\n        greeting = _greeting;\n    }\n    /* 주(Main) 함수 */\n    function greet() public view returns (string memory) {\n        return greeting;\n    }\n}",
  "sourcePath": "/Users/baekdonghyun/Desktop/beb-03-DND/server/contracts/KlaytnGreeter.sol",
  "compiler": {
    "name": "solc",
    "version": "0.5.6+commit.b259423e.Emscripten.clang"
  },
  "schemaVersion": "3.3.3",
  "updatedAt": "2022-05-09T09:43:08.294Z",
  "devdoc": {
    "methods": {}
  },
  "userdoc": {
    "methods": {}
  }
}