{
  "contractName": "Exchange",
  "abi": [
    {
      "constant": true,
      "inputs": [],
      "name": "tokenAddress",
      "outputs": [
        {
          "name": "",
          "type": "address"
        }
      ],
      "payable": false,
      "stateMutability": "view",
      "type": "function"
    },
    {
      "payable": true,
      "stateMutability": "payable",
      "type": "fallback"
    },
    {
      "anonymous": false,
      "inputs": [
        {
          "indexed": false,
          "name": "amount",
          "type": "uint256"
        }
      ],
      "name": "FallbackCalled",
      "type": "event"
    },
    {
      "constant": false,
      "inputs": [
        {
          "name": "_token",
          "type": "address"
        }
      ],
      "name": "setToken",
      "outputs": [],
      "payable": true,
      "stateMutability": "payable",
      "type": "function"
    },
    {
      "constant": false,
      "inputs": [
        {
          "name": "_tokenAmount",
          "type": "uint256"
        }
      ],
      "name": "addLiquidity",
      "outputs": [],
      "payable": true,
      "stateMutability": "payable",
      "type": "function"
    },
    {
      "constant": true,
      "inputs": [],
      "name": "getReserve",
      "outputs": [
        {
          "name": "balance",
          "type": "uint256"
        }
      ],
      "payable": false,
      "stateMutability": "view",
      "type": "function"
    },
    {
      "constant": true,
      "inputs": [],
      "name": "getklay",
      "outputs": [
        {
          "name": "balance",
          "type": "uint256"
        }
      ],
      "payable": false,
      "stateMutability": "view",
      "type": "function"
    },
    {
      "constant": true,
      "inputs": [
        {
          "name": "_klaySold",
          "type": "uint256"
        }
      ],
      "name": "getTokenAmount",
      "outputs": [
        {
          "name": "",
          "type": "uint256"
        }
      ],
      "payable": false,
      "stateMutability": "view",
      "type": "function"
    },
    {
      "constant": true,
      "inputs": [
        {
          "name": "_tokenSold",
          "type": "uint256"
        }
      ],
      "name": "getklayAmount",
      "outputs": [
        {
          "name": "",
          "type": "uint256"
        }
      ],
      "payable": false,
      "stateMutability": "view",
      "type": "function"
    },
    {
      "constant": false,
      "inputs": [
        {
          "name": "_minTokens",
          "type": "uint256"
        }
      ],
      "name": "klayToTokenSwap",
      "outputs": [],
      "payable": true,
      "stateMutability": "payable",
      "type": "function"
    },
    {
      "constant": false,
      "inputs": [
        {
          "name": "_tokensSold",
          "type": "uint256"
        },
        {
          "name": "_minklay",
          "type": "uint256"
        }
      ],
      "name": "tokenToklaySwap",
      "outputs": [],
      "payable": false,
      "stateMutability": "nonpayable",
      "type": "function"
    }
  ],
  "bytecode": "0x608060405234801561001057600080fd5b50610c9d806100206000396000f3fe6080604052600436106100865760003560e01c8063c23c456411610059578063c23c4564146101b3578063c2507ac114610202578063ccbf7b8614610251578063d99410371461027f578063f47f770a146102aa57610086565b8063144fa6d7146100bf57806351c6590a1461010357806359bf5d39146101315780639d76ea581461015c575b7fe313b135453e5deea84af41be832dcdd6d8b7109750349eb21c3737aa5ef024f346040518082815260200191505060405180910390a1005b610101600480360360208110156100d557600080fd5b81019080803573ffffffffffffffffffffffffffffffffffffffff1690602001909291905050506102ef565b005b61012f6004803603602081101561011957600080fd5b81019080803590602001909291905050506103d5565b005b34801561013d57600080fd5b506101466105b9565b6040518082815260200191505060405180910390f35b34801561016857600080fd5b50610171610699565b604051808273ffffffffffffffffffffffffffffffffffffffff1673ffffffffffffffffffffffffffffffffffffffff16815260200191505060405180910390f35b3480156101bf57600080fd5b506101ec600480360360208110156101d657600080fd5b81019080803590602001909291905050506106be565b6040518082815260200191505060405180910390f35b34801561020e57600080fd5b5061023b6004803603602081101561022557600080fd5b810190808035906020019092919050505061076b565b6040518082815260200191505060405180910390f35b61027d6004803603602081101561026757600080fd5b8101908080359060200190929190505050610818565b005b34801561028b57600080fd5b506102946109ab565b6040518082815260200191505060405180910390f35b3480156102b657600080fd5b506102ed600480360360408110156102cd57600080fd5b8101908080359060200190929190803590602001909291905050506109ca565b005b600073ffffffffffffffffffffffffffffffffffffffff168173ffffffffffffffffffffffffffffffffffffffff161415610392576040517f08c379a00000000000000000000000000000000000000000000000000000000081526004018080602001828103825260158152602001807f696e76616c696420746f6b656e2061646472657373000000000000000000000081525060200191505060405180910390fd5b806000806101000a81548173ffffffffffffffffffffffffffffffffffffffff021916908373ffffffffffffffffffffffffffffffffffffffff16021790555050565b60008060009054906101000a900473ffffffffffffffffffffffffffffffffffffffff1690508073ffffffffffffffffffffffffffffffffffffffff1663095ea7b330846040518363ffffffff1660e01b8152600401808373ffffffffffffffffffffffffffffffffffffffff1673ffffffffffffffffffffffffffffffffffffffff16815260200182815260200192505050602060405180830381600087803b15801561048257600080fd5b505af1158015610496573d6000803e3d6000fd5b505050506040513d60208110156104ac57600080fd5b8101908080519060200190929190505050508073ffffffffffffffffffffffffffffffffffffffff166323b872dd3330856040518463ffffffff1660e01b8152600401808473ffffffffffffffffffffffffffffffffffffffff1673ffffffffffffffffffffffffffffffffffffffff1681526020018373ffffffffffffffffffffffffffffffffffffffff1673ffffffffffffffffffffffffffffffffffffffff1681526020018281526020019350505050602060405180830381600087803b15801561057957600080fd5b505af115801561058d573d6000803e3d6000fd5b505050506040513d60208110156105a357600080fd5b8101908080519060200190929190505050505050565b60008060009054906101000a900473ffffffffffffffffffffffffffffffffffffffff1673ffffffffffffffffffffffffffffffffffffffff166370a08231306040518263ffffffff1660e01b8152600401808273ffffffffffffffffffffffffffffffffffffffff1673ffffffffffffffffffffffffffffffffffffffff16815260200191505060206040518083038186803b15801561065957600080fd5b505afa15801561066d573d6000803e3d6000fd5b505050506040513d602081101561068357600080fd5b8101908080519060200190929190505050905090565b6000809054906101000a900473ffffffffffffffffffffffffffffffffffffffff1681565b6000808211610735576040517f08c379a00000000000000000000000000000000000000000000000000000000081526004018080602001828103825260168152602001807f746f6b656e536f6c6420697320746f6f20736d616c6c0000000000000000000081525060200191505060405180910390fd5b600061073f6105b9565b905061076383823073ffffffffffffffffffffffffffffffffffffffff1631610bd7565b915050919050565b60008082116107e2576040517f08c379a00000000000000000000000000000000000000000000000000000000081526004018080602001828103825260158152602001807f6b6c6179536f6c6420697320746f6f20736d616c6c000000000000000000000081525060200191505060405180910390fd5b60006107ec6105b9565b9050610810833073ffffffffffffffffffffffffffffffffffffffff163183610bd7565b915050919050565b60006108226105b9565b9050600061084a34343073ffffffffffffffffffffffffffffffffffffffff16310384610bd7565b9050828110156108c2576040517f08c379a000000000000000000000000000000000000000000000000000000000815260040180806020018281038252601a8152602001807f696e73756666696369656e74206f757470757420616d6f756e7400000000000081525060200191505060405180910390fd5b6000809054906101000a900473ffffffffffffffffffffffffffffffffffffffff1673ffffffffffffffffffffffffffffffffffffffff1663a9059cbb33836040518363ffffffff1660e01b8152600401808373ffffffffffffffffffffffffffffffffffffffff1673ffffffffffffffffffffffffffffffffffffffff16815260200182815260200192505050602060405180830381600087803b15801561096a57600080fd5b505af115801561097e573d6000803e3d6000fd5b505050506040513d602081101561099457600080fd5b810190808051906020019092919050505050505050565b60003073ffffffffffffffffffffffffffffffffffffffff1631905090565b60006109d46105b9565b905060006109fa84833073ffffffffffffffffffffffffffffffffffffffff1631610bd7565b905082811015610a72576040517f08c379a000000000000000000000000000000000000000000000000000000000815260040180806020018281038252601a8152602001807f696e73756666696369656e74206f757470757420616d6f756e7400000000000081525060200191505060405180910390fd5b6000809054906101000a900473ffffffffffffffffffffffffffffffffffffffff1673ffffffffffffffffffffffffffffffffffffffff166323b872dd3330876040518463ffffffff1660e01b8152600401808473ffffffffffffffffffffffffffffffffffffffff1673ffffffffffffffffffffffffffffffffffffffff1681526020018373ffffffffffffffffffffffffffffffffffffffff1673ffffffffffffffffffffffffffffffffffffffff1681526020018281526020019350505050602060405180830381600087803b158015610b4e57600080fd5b505af1158015610b62573d6000803e3d6000fd5b505050506040513d6020811015610b7857600080fd5b8101908080519060200190929190505050503373ffffffffffffffffffffffffffffffffffffffff166108fc829081150290604051600060405180830381858888f19350505050158015610bd0573d6000803e3d6000fd5b5050505050565b60008083118015610be85750600082115b610c5a576040517f08c379a00000000000000000000000000000000000000000000000000000000081526004018080602001828103825260108152602001807f696e76616c69642072657365727665730000000000000000000000000000000081525060200191505060405180910390fd5b83830182850281610c6757fe5b049050939250505056fea165627a7a7230582021b6353b732c5ccfb4ba1cae4b308f193e3a311cf5d53d8312e117ff27b2a2510029",
  "source": "// SPDX-License-Identifier: MIT\npragma solidity ^0.5.6;\n\nimport \"@klaytn/contracts/token/KIP7/KIP7.sol\";\nimport \"@klaytn/contracts/token/KIP7/IKIP7.sol\";\n\ncontract Exchange {\n  address public tokenAddress;\n\n//   constructor(address _token) public payable {\n//     require(_token != address(0), \"invalid token address\");\n//     tokenAddress = _token;\n// }\n\n    event FallbackCalled(uint amount);\n\n    function () external payable {\n    emit FallbackCalled(msg.value);\n}\n\n  function setToken(address _token) public payable {\n    require(_token != address(0), \"invalid token address\");\n    tokenAddress = _token;\n}\n\n    function addLiquidity(uint256 _tokenAmount) public payable {\n    KIP7 token = KIP7(tokenAddress);\n    token.approve(address(this), _tokenAmount);\n    token.transferFrom(msg.sender, address(this), _tokenAmount); // caver-js로 owner를 지갑 주소로 해서 실험해 볼 것\n}\n\n    function getReserve() public view returns (uint256 balance) {\n    balance =  KIP7(tokenAddress).balanceOf(address(this)); \n}\n\n    function getklay() public view returns (uint256 balance) {\n    balance =  address(this).balance;\n}\n\n    function getTokenAmount(uint256 _klaySold) public view returns (uint256) { // klay의 양을 받고 교환해 줄 토큰의 양을 출력하는 함수\n    require(_klaySold > 0, \"klaySold is too small\");\n\n    uint256 tokenReserve = getReserve();\n\n    return getAmount(_klaySold, address(this).balance, tokenReserve); // 교환해 줄 토큰의 양 (y)\n}\n\n    function getklayAmount(uint256 _tokenSold) public view returns (uint256) {\n    require(_tokenSold > 0, \"tokenSold is too small\");\n\n    uint256 tokenReserve = getReserve();\n\n    return getAmount(_tokenSold, tokenReserve, address(this).balance);\n}\n\n    function klayToTokenSwap(uint256 _minTokens) public payable {\n    uint256 tokenReserve = getReserve(); // 풀의 토큰 잔액\n    uint256 tokensBought = getAmount(\n    msg.value, // 입금한 klay\n    address(this).balance - msg.value, // 풀에있는 klay의 양\n    tokenReserve // 풀에 있는 토큰의 양\n  );\n\n    require(tokensBought >= _minTokens, \"insufficient output amount\"); // 교환해 줄 토큰이 모자라면 안된다!\n\n    KIP7(tokenAddress).transfer(msg.sender, tokensBought); // tokenBought = 교환해 줄 토큰의 양을 msg.sender에게 보내 준다.\n}\n\n    function tokenToklaySwap(uint256 _tokensSold, uint256 _minklay) public {\n\n    uint256 tokenReserve = getReserve(); // 풀에 있는 토큰의 양\n    uint256 klayBought = getAmount(\n    _tokensSold, // 입급한 토큰의 양\n    tokenReserve, // 풀에 있는 토큰의 양\n    address(this).balance // 풀에 있는 klay의 양\n  );\n\n    require(klayBought >= _minklay, \"insufficient output amount\");\n\n    KIP7(tokenAddress).transferFrom(msg.sender, address(this), _tokensSold); // msg.sender에게 컨트랙트 주소로 토큰을 보내게 한다.\n    msg.sender.transfer(klayBought); // msg.sender에게 klaybought 만큼의 클레이를 보내 준다.\n}\n\n    function getAmount( // x(지불할 토큰)의 양을 넣으면 교환해 줄 y의 양을 출력하는 함수\n    uint256 inputAmount,\n    uint256 inputReserve,\n    uint256 outputReserve\n) private pure returns (uint256) {\n    require(inputReserve > 0 && outputReserve > 0, \"invalid reserves\");\n\n    return (inputAmount * outputReserve) / (inputReserve + inputAmount);\n}\n\n}",
  "sourcePath": "/Users/baekdonghyun/Desktop/beb-03-DND/contract/contracts/Exchange.sol",
  "compiler": {
    "name": "solc",
    "version": "0.5.6+commit.b259423e.Emscripten.clang"
  },
  "schemaVersion": "3.4.5",
  "updatedAt": "2022-05-10T16:01:02.320Z",
  "networkType": "ethereum",
  "devdoc": {
    "methods": {}
  },
  "userdoc": {
    "methods": {}
  }
}