{
  "contractName": "Exchange",
  "abi": [
    {
      "constant": true,
      "inputs": [],
      "name": "tokenAddress",
      "outputs": [
        {
          "name": "",
          "type": "address"
        }
      ],
      "payable": false,
      "stateMutability": "view",
      "type": "function"
    },
    {
      "inputs": [
        {
          "name": "_token",
          "type": "address"
        }
      ],
      "payable": false,
      "stateMutability": "nonpayable",
      "type": "constructor"
    },
    {
      "constant": false,
      "inputs": [
        {
          "name": "_tokenAmount",
          "type": "uint256"
        }
      ],
      "name": "addLiquidity",
      "outputs": [],
      "payable": true,
      "stateMutability": "payable",
      "type": "function"
    },
    {
      "constant": true,
      "inputs": [],
      "name": "getReserve",
      "outputs": [
        {
          "name": "balance",
          "type": "uint256"
        }
      ],
      "payable": false,
      "stateMutability": "view",
      "type": "function"
    },
    {
      "constant": true,
      "inputs": [
        {
          "name": "_klaySold",
          "type": "uint256"
        }
      ],
      "name": "getTokenAmount",
      "outputs": [
        {
          "name": "",
          "type": "uint256"
        }
      ],
      "payable": false,
      "stateMutability": "view",
      "type": "function"
    },
    {
      "constant": true,
      "inputs": [
        {
          "name": "_tokenSold",
          "type": "uint256"
        }
      ],
      "name": "getklayAmount",
      "outputs": [
        {
          "name": "",
          "type": "uint256"
        }
      ],
      "payable": false,
      "stateMutability": "view",
      "type": "function"
    },
    {
      "constant": false,
      "inputs": [
        {
          "name": "_minTokens",
          "type": "uint256"
        }
      ],
      "name": "klayToTokenSwap",
      "outputs": [],
      "payable": true,
      "stateMutability": "payable",
      "type": "function"
    },
    {
      "constant": false,
      "inputs": [
        {
          "name": "_tokensSold",
          "type": "uint256"
        },
        {
          "name": "_minklay",
          "type": "uint256"
        }
      ],
      "name": "tokenToklaySwap",
      "outputs": [],
      "payable": false,
      "stateMutability": "nonpayable",
      "type": "function"
    }
  ],
  "bytecode": "0x608060405234801561001057600080fd5b50604051602080610c138339810180604052602081101561003057600080fd5b8101908080519060200190929190505050600073ffffffffffffffffffffffffffffffffffffffff168173ffffffffffffffffffffffffffffffffffffffff1614156100e4576040517f08c379a00000000000000000000000000000000000000000000000000000000081526004018080602001828103825260158152602001807f696e76616c696420746f6b656e2061646472657373000000000000000000000081525060200191505060405180910390fd5b806000806101000a81548173ffffffffffffffffffffffffffffffffffffffff021916908373ffffffffffffffffffffffffffffffffffffffff16021790555050610adf806101346000396000f3fe6080604052600436106100705760003560e01c8063c23c45641161004e578063c23c456414610125578063c2507ac114610174578063ccbf7b86146101c3578063f47f770a146101f157610070565b806351c6590a1461007557806359bf5d39146100a35780639d76ea58146100ce575b600080fd5b6100a16004803603602081101561008b57600080fd5b8101908080359060200190929190505050610236565b005b3480156100af57600080fd5b506100b861041a565b6040518082815260200191505060405180910390f35b3480156100da57600080fd5b506100e36104fa565b604051808273ffffffffffffffffffffffffffffffffffffffff1673ffffffffffffffffffffffffffffffffffffffff16815260200191505060405180910390f35b34801561013157600080fd5b5061015e6004803603602081101561014857600080fd5b810190808035906020019092919050505061051f565b6040518082815260200191505060405180910390f35b34801561018057600080fd5b506101ad6004803603602081101561019757600080fd5b81019080803590602001909291905050506105cc565b6040518082815260200191505060405180910390f35b6101ef600480360360208110156101d957600080fd5b8101908080359060200190929190505050610679565b005b3480156101fd57600080fd5b506102346004803603604081101561021457600080fd5b81019080803590602001909291908035906020019092919050505061080c565b005b60008060009054906101000a900473ffffffffffffffffffffffffffffffffffffffff1690508073ffffffffffffffffffffffffffffffffffffffff1663095ea7b330846040518363ffffffff1660e01b8152600401808373ffffffffffffffffffffffffffffffffffffffff1673ffffffffffffffffffffffffffffffffffffffff16815260200182815260200192505050602060405180830381600087803b1580156102e357600080fd5b505af11580156102f7573d6000803e3d6000fd5b505050506040513d602081101561030d57600080fd5b8101908080519060200190929190505050508073ffffffffffffffffffffffffffffffffffffffff166323b872dd3330856040518463ffffffff1660e01b8152600401808473ffffffffffffffffffffffffffffffffffffffff1673ffffffffffffffffffffffffffffffffffffffff1681526020018373ffffffffffffffffffffffffffffffffffffffff1673ffffffffffffffffffffffffffffffffffffffff1681526020018281526020019350505050602060405180830381600087803b1580156103da57600080fd5b505af11580156103ee573d6000803e3d6000fd5b505050506040513d602081101561040457600080fd5b8101908080519060200190929190505050505050565b60008060009054906101000a900473ffffffffffffffffffffffffffffffffffffffff1673ffffffffffffffffffffffffffffffffffffffff166370a08231306040518263ffffffff1660e01b8152600401808273ffffffffffffffffffffffffffffffffffffffff1673ffffffffffffffffffffffffffffffffffffffff16815260200191505060206040518083038186803b1580156104ba57600080fd5b505afa1580156104ce573d6000803e3d6000fd5b505050506040513d60208110156104e457600080fd5b8101908080519060200190929190505050905090565b6000809054906101000a900473ffffffffffffffffffffffffffffffffffffffff1681565b6000808211610596576040517f08c379a00000000000000000000000000000000000000000000000000000000081526004018080602001828103825260168152602001807f746f6b656e536f6c6420697320746f6f20736d616c6c0000000000000000000081525060200191505060405180910390fd5b60006105a061041a565b90506105c483823073ffffffffffffffffffffffffffffffffffffffff1631610a19565b915050919050565b6000808211610643576040517f08c379a00000000000000000000000000000000000000000000000000000000081526004018080602001828103825260158152602001807f6b6c6179536f6c6420697320746f6f20736d616c6c000000000000000000000081525060200191505060405180910390fd5b600061064d61041a565b9050610671833073ffffffffffffffffffffffffffffffffffffffff163183610a19565b915050919050565b600061068361041a565b905060006106ab34343073ffffffffffffffffffffffffffffffffffffffff16310384610a19565b905082811015610723576040517f08c379a000000000000000000000000000000000000000000000000000000000815260040180806020018281038252601a8152602001807f696e73756666696369656e74206f757470757420616d6f756e7400000000000081525060200191505060405180910390fd5b6000809054906101000a900473ffffffffffffffffffffffffffffffffffffffff1673ffffffffffffffffffffffffffffffffffffffff1663a9059cbb33836040518363ffffffff1660e01b8152600401808373ffffffffffffffffffffffffffffffffffffffff1673ffffffffffffffffffffffffffffffffffffffff16815260200182815260200192505050602060405180830381600087803b1580156107cb57600080fd5b505af11580156107df573d6000803e3d6000fd5b505050506040513d60208110156107f557600080fd5b810190808051906020019092919050505050505050565b600061081661041a565b9050600061083c84833073ffffffffffffffffffffffffffffffffffffffff1631610a19565b9050828110156108b4576040517f08c379a000000000000000000000000000000000000000000000000000000000815260040180806020018281038252601a8152602001807f696e73756666696369656e74206f757470757420616d6f756e7400000000000081525060200191505060405180910390fd5b6000809054906101000a900473ffffffffffffffffffffffffffffffffffffffff1673ffffffffffffffffffffffffffffffffffffffff166323b872dd3330876040518463ffffffff1660e01b8152600401808473ffffffffffffffffffffffffffffffffffffffff1673ffffffffffffffffffffffffffffffffffffffff1681526020018373ffffffffffffffffffffffffffffffffffffffff1673ffffffffffffffffffffffffffffffffffffffff1681526020018281526020019350505050602060405180830381600087803b15801561099057600080fd5b505af11580156109a4573d6000803e3d6000fd5b505050506040513d60208110156109ba57600080fd5b8101908080519060200190929190505050503373ffffffffffffffffffffffffffffffffffffffff166108fc829081150290604051600060405180830381858888f19350505050158015610a12573d6000803e3d6000fd5b5050505050565b60008083118015610a2a5750600082115b610a9c576040517f08c379a00000000000000000000000000000000000000000000000000000000081526004018080602001828103825260108152602001807f696e76616c69642072657365727665730000000000000000000000000000000081525060200191505060405180910390fd5b83830182850281610aa957fe5b049050939250505056fea165627a7a7230582033f1c624a8ed137de487c81800bb61508cb701ba2012b0c0fec8d15e75b2a9190029",
  "source": "// SPDX-License-Identifier: MIT\npragma solidity ^0.5.6;\n\nimport \"@klaytn/contracts/token/KIP7/KIP7.sol\";\nimport \"@klaytn/contracts/token/KIP7/IKIP7.sol\";\n\ncontract Exchange {\n  address public tokenAddress;\n\n  constructor(address _token) public {\n    require(_token != address(0), \"invalid token address\");\n    tokenAddress = _token;\n  }\n\n    function addLiquidity(uint256 _tokenAmount) public payable {\n    KIP7 token = KIP7(tokenAddress);\n    token.approve(address(this), _tokenAmount);\n    token.transferFrom(msg.sender, address(this), _tokenAmount); // caver-js로 owner를 지갑 주소로 해서 실험해 볼 것\n}\n\n    function getReserve() public view returns (uint256 balance) {\n    balance =  KIP7(tokenAddress).balanceOf(address(this)); \n}\n\n    function getTokenAmount(uint256 _klaySold) public view returns (uint256) { // klay의 양을 받고 교환해 줄 토큰의 양을 출력하는 함수\n    require(_klaySold > 0, \"klaySold is too small\");\n\n    uint256 tokenReserve = getReserve();\n\n    return getAmount(_klaySold, address(this).balance, tokenReserve); // 교환해 줄 토큰의 양 (y)\n}\n\n    function getklayAmount(uint256 _tokenSold) public view returns (uint256) {\n    require(_tokenSold > 0, \"tokenSold is too small\");\n\n    uint256 tokenReserve = getReserve();\n\n    return getAmount(_tokenSold, tokenReserve, address(this).balance);\n}\n\n    function klayToTokenSwap(uint256 _minTokens) public payable {\n    uint256 tokenReserve = getReserve(); // 풀의 토큰 잔액\n    uint256 tokensBought = getAmount(\n    msg.value, // 입금한 klay\n    address(this).balance - msg.value, // 풀에있는 klay의 양\n    tokenReserve // 풀에 있는 토큰의 양\n  );\n\n    require(tokensBought >= _minTokens, \"insufficient output amount\"); // 교환해 줄 토큰이 모자라면 안된다!\n\n    KIP7(tokenAddress).transfer(msg.sender, tokensBought); // tokenBought = 교환해 줄 토큰의 양을 msg.sender에게 보내 준다.\n}\n\n    function tokenToklaySwap(uint256 _tokensSold, uint256 _minklay) public {\n\n    uint256 tokenReserve = getReserve(); // 풀에 있는 토큰의 양\n    uint256 klayBought = getAmount(\n    _tokensSold, // 입급한 토큰의 양\n    tokenReserve, // 풀에 있는 토큰의 양\n    address(this).balance // 풀에 있는 klay의 양\n  );\n\n    require(klayBought >= _minklay, \"insufficient output amount\");\n\n    KIP7(tokenAddress).transferFrom(msg.sender, address(this), _tokensSold); // msg.sender에게 컨트랙트 주소로 토큰을 보내게 한다.\n    msg.sender.transfer(klayBought); // msg.sender에게 klaybought 만큼의 클레이를 보내 준다.\n}\n\n    function getAmount( // x(지불할 토큰)의 양을 넣으면 교환해 줄 y의 양을 출력하는 함수\n    uint256 inputAmount,\n    uint256 inputReserve,\n    uint256 outputReserve\n) private pure returns (uint256) {\n    require(inputReserve > 0 && outputReserve > 0, \"invalid reserves\");\n\n    return (inputAmount * outputReserve) / (inputReserve + inputAmount);\n}\n\n}",
  "sourcePath": "/Users/baekdonghyun/Desktop/beb-03-DND/contract/contracts/Exchange.sol",
  "compiler": {
    "name": "solc",
    "version": "0.5.6+commit.b259423e.Emscripten.clang"
  },
  "schemaVersion": "3.4.5",
  "updatedAt": "2022-05-10T15:03:04.255Z",
  "networkType": "ethereum",
  "devdoc": {
    "methods": {}
  },
  "userdoc": {
    "methods": {}
  }
}